{
  "_format": "hh-sol-artifact-1",
  "contractName": "ContinuousTokenStream",
  "sourceName": "contracts/testFluid.sol",
  "abi": [
    {
      "inputs": [
        {
          "internalType": "contract ISuperfluid",
          "name": "_host",
          "type": "address"
        },
        {
          "internalType": "contract IConstantFlowAgreementV1",
          "name": "_cfa",
          "type": "address"
        },
        {
          "internalType": "contract ISuperToken",
          "name": "_token",
          "type": "address"
        }
      ],
      "stateMutability": "nonpayable",
      "type": "constructor"
    },
    {
      "inputs": [
        {
          "internalType": "contract ISuperToken",
          "name": "",
          "type": "address"
        },
        {
          "internalType": "address",
          "name": "",
          "type": "address"
        },
        {
          "internalType": "bytes32",
          "name": "",
          "type": "bytes32"
        },
        {
          "internalType": "bytes",
          "name": "",
          "type": "bytes"
        },
        {
          "internalType": "bytes",
          "name": "",
          "type": "bytes"
        },
        {
          "internalType": "bytes",
          "name": "",
          "type": "bytes"
        }
      ],
      "name": "afterAgreementCreated",
      "outputs": [
        {
          "internalType": "bytes",
          "name": "",
          "type": "bytes"
        }
      ],
      "stateMutability": "nonpayable",
      "type": "function"
    },
    {
      "inputs": [
        {
          "internalType": "contract ISuperToken",
          "name": "",
          "type": "address"
        },
        {
          "internalType": "address",
          "name": "",
          "type": "address"
        },
        {
          "internalType": "bytes32",
          "name": "",
          "type": "bytes32"
        },
        {
          "internalType": "bytes",
          "name": "",
          "type": "bytes"
        },
        {
          "internalType": "bytes",
          "name": "",
          "type": "bytes"
        },
        {
          "internalType": "bytes",
          "name": "",
          "type": "bytes"
        }
      ],
      "name": "afterAgreementTerminated",
      "outputs": [
        {
          "internalType": "bytes",
          "name": "",
          "type": "bytes"
        }
      ],
      "stateMutability": "nonpayable",
      "type": "function"
    },
    {
      "inputs": [
        {
          "internalType": "contract ISuperToken",
          "name": "",
          "type": "address"
        },
        {
          "internalType": "address",
          "name": "",
          "type": "address"
        },
        {
          "internalType": "bytes32",
          "name": "",
          "type": "bytes32"
        },
        {
          "internalType": "bytes",
          "name": "",
          "type": "bytes"
        },
        {
          "internalType": "bytes",
          "name": "",
          "type": "bytes"
        },
        {
          "internalType": "bytes",
          "name": "",
          "type": "bytes"
        }
      ],
      "name": "afterAgreementUpdated",
      "outputs": [
        {
          "internalType": "bytes",
          "name": "",
          "type": "bytes"
        }
      ],
      "stateMutability": "nonpayable",
      "type": "function"
    },
    {
      "inputs": [
        {
          "internalType": "contract ISuperToken",
          "name": "",
          "type": "address"
        },
        {
          "internalType": "address",
          "name": "",
          "type": "address"
        },
        {
          "internalType": "bytes32",
          "name": "",
          "type": "bytes32"
        },
        {
          "internalType": "bytes",
          "name": "",
          "type": "bytes"
        },
        {
          "internalType": "bytes",
          "name": "",
          "type": "bytes"
        }
      ],
      "name": "beforeAgreementCreated",
      "outputs": [
        {
          "internalType": "bytes",
          "name": "",
          "type": "bytes"
        }
      ],
      "stateMutability": "view",
      "type": "function"
    },
    {
      "inputs": [
        {
          "internalType": "contract ISuperToken",
          "name": "",
          "type": "address"
        },
        {
          "internalType": "address",
          "name": "",
          "type": "address"
        },
        {
          "internalType": "bytes32",
          "name": "",
          "type": "bytes32"
        },
        {
          "internalType": "bytes",
          "name": "",
          "type": "bytes"
        },
        {
          "internalType": "bytes",
          "name": "",
          "type": "bytes"
        }
      ],
      "name": "beforeAgreementTerminated",
      "outputs": [
        {
          "internalType": "bytes",
          "name": "",
          "type": "bytes"
        }
      ],
      "stateMutability": "view",
      "type": "function"
    },
    {
      "inputs": [
        {
          "internalType": "contract ISuperToken",
          "name": "",
          "type": "address"
        },
        {
          "internalType": "address",
          "name": "",
          "type": "address"
        },
        {
          "internalType": "bytes32",
          "name": "",
          "type": "bytes32"
        },
        {
          "internalType": "bytes",
          "name": "",
          "type": "bytes"
        },
        {
          "internalType": "bytes",
          "name": "",
          "type": "bytes"
        }
      ],
      "name": "beforeAgreementUpdated",
      "outputs": [
        {
          "internalType": "bytes",
          "name": "",
          "type": "bytes"
        }
      ],
      "stateMutability": "view",
      "type": "function"
    },
    {
      "inputs": [
        {
          "internalType": "address",
          "name": "user",
          "type": "address"
        }
      ],
      "name": "isUserStreaming",
      "outputs": [
        {
          "internalType": "bool",
          "name": "",
          "type": "bool"
        }
      ],
      "stateMutability": "view",
      "type": "function"
    },
    {
      "inputs": [
        {
          "internalType": "address",
          "name": "recipient",
          "type": "address"
        },
        {
          "internalType": "int96",
          "name": "flowRate",
          "type": "int96"
        }
      ],
      "name": "startContinuousStream",
      "outputs": [],
      "stateMutability": "nonpayable",
      "type": "function"
    },
    {
      "inputs": [],
      "name": "stopContinuousStream",
      "outputs": [],
      "stateMutability": "nonpayable",
      "type": "function"
    }
  ],
  "bytecode": "0x60806040523480156200001157600080fd5b5060405162001763380380620017638339818101604052810190620000379190620002b5565b826000806101000a81548173ffffffffffffffffffffffffffffffffffffffff021916908373ffffffffffffffffffffffffffffffffffffffff16021790555081600160006101000a81548173ffffffffffffffffffffffffffffffffffffffff021916908373ffffffffffffffffffffffffffffffffffffffff16021790555080600260006101000a81548173ffffffffffffffffffffffffffffffffffffffff021916908373ffffffffffffffffffffffffffffffffffffffff16021790555060006410000000006404000000006401000000006001171717905060008054906101000a900473ffffffffffffffffffffffffffffffffffffffff1673ffffffffffffffffffffffffffffffffffffffff1663ad3915c8826040518263ffffffff1660e01b81526004016200016f91906200032c565b600060405180830381600087803b1580156200018a57600080fd5b505af11580156200019f573d6000803e3d6000fd5b505050505050505062000349565b600080fd5b600073ffffffffffffffffffffffffffffffffffffffff82169050919050565b6000620001df82620001b2565b9050919050565b6000620001f382620001d2565b9050919050565b6200020581620001e6565b81146200021157600080fd5b50565b6000815190506200022581620001fa565b92915050565b60006200023882620001d2565b9050919050565b6200024a816200022b565b81146200025657600080fd5b50565b6000815190506200026a816200023f565b92915050565b60006200027d82620001d2565b9050919050565b6200028f8162000270565b81146200029b57600080fd5b50565b600081519050620002af8162000284565b92915050565b600080600060608486031215620002d157620002d0620001ad565b5b6000620002e18682870162000214565b9350506020620002f48682870162000259565b925050604062000307868287016200029e565b9150509250925092565b6000819050919050565b620003268162000311565b82525050565b60006020820190506200034360008301846200031b565b92915050565b61140a80620003596000396000f3fe608060405234801561001057600080fd5b50600436106100935760003560e01c806353c11f991161006657806353c11f991461011e5780635f9e7d771461014e57806375acc1611461017e578063884d1f40146101ae578063d86ed3e5146101de57610093565b8063230dbd29146100985780632682475b146100c857806330d9c915146100e4578063530d485314610114575b600080fd5b6100b260048036038101906100ad9190610906565b61020e565b6040516100bf9190610a85565b60405180910390f35b6100e260048036038101906100dd9190610ae0565b61024b565b005b6100fe60048036038101906100f99190610b20565b6103ff565b60405161010b9190610a85565b60405180910390f35b61011c61043c565b005b61013860048036038101906101339190610906565b6105ee565b6040516101459190610a85565b60405180910390f35b61016860048036038101906101639190610b20565b61062b565b6040516101759190610a85565b60405180910390f35b61019860048036038101906101939190610bdc565b610668565b6040516101a59190610c24565b60405180910390f35b6101c860048036038101906101c39190610b20565b610741565b6040516101d59190610a85565b60405180910390f35b6101f860048036038101906101f39190610906565b61077e565b6040516102059190610a85565b60405180910390f35b60606040517f08c379a000000000000000000000000000000000000000000000000000000000815260040161024290610cc2565b60405180910390fd5b60008054906101000a900473ffffffffffffffffffffffffffffffffffffffff1673ffffffffffffffffffffffffffffffffffffffff166339255d5b600160009054906101000a900473ffffffffffffffffffffffffffffffffffffffff166362fc305e60e01b600260009054906101000a900473ffffffffffffffffffffffffffffffffffffffff168686600067ffffffffffffffff8111156102f2576102f1610ce2565b5b6040519080825280601f01601f1916602001820160405280156103245781602001600182028036833780820191505090505b506040516024016103389493929190610d8e565b604051602081830303815290604052907bffffffffffffffffffffffffffffffffffffffffffffffffffffffff19166020820180517bffffffffffffffffffffffffffffffffffffffffffffffffffffffff83818316178352505050506040518363ffffffff1660e01b81526004016103b2929190610e47565b6000604051808303816000875af11580156103d1573d6000803e3d6000fd5b505050506040513d6000823e3d601f19601f820116820180604052508101906103fa9190610f7c565b505050565b60606040517f08c379a000000000000000000000000000000000000000000000000000000000815260040161043390611037565b60405180910390fd5b60008054906101000a900473ffffffffffffffffffffffffffffffffffffffff1673ffffffffffffffffffffffffffffffffffffffff166339255d5b600160009054906101000a900473ffffffffffffffffffffffffffffffffffffffff1663b4b333c660e01b600260009054906101000a900473ffffffffffffffffffffffffffffffffffffffff163033600067ffffffffffffffff8111156104e3576104e2610ce2565b5b6040519080825280601f01601f1916602001820160405280156105155781602001600182028036833780820191505090505b506040516024016105299493929190611057565b604051602081830303815290604052907bffffffffffffffffffffffffffffffffffffffffffffffffffffffff19166020820180517bffffffffffffffffffffffffffffffffffffffffffffffffffffffff83818316178352505050506040518363ffffffff1660e01b81526004016105a3929190610e47565b6000604051808303816000875af11580156105c2573d6000803e3d6000fd5b505050506040513d6000823e3d601f19601f820116820180604052508101906105eb9190610f7c565b50565b60606040517f08c379a000000000000000000000000000000000000000000000000000000000815260040161062290611115565b60405180910390fd5b60606040517f08c379a000000000000000000000000000000000000000000000000000000000815260040161065f906111a7565b60405180910390fd5b600080600160009054906101000a900473ffffffffffffffffffffffffffffffffffffffff1673ffffffffffffffffffffffffffffffffffffffff1663e6a1e888600260009054906101000a900473ffffffffffffffffffffffffffffffffffffffff1685306040518463ffffffff1660e01b81526004016106ec939291906111c7565b608060405180830381865afa158015610709573d6000803e3d6000fd5b505050506040513d601f19601f8201168201806040525081019061072d9190611249565b5050915050600081600b0b13915050919050565b60606040517f08c379a000000000000000000000000000000000000000000000000000000000815260040161077590611322565b60405180910390fd5b60606040517f08c379a00000000000000000000000000000000000000000000000000000000081526004016107b2906113b4565b60405180910390fd5b6000604051905090565b600080fd5b600080fd5b600073ffffffffffffffffffffffffffffffffffffffff82169050919050565b60006107fa826107cf565b9050919050565b600061080c826107ef565b9050919050565b61081c81610801565b811461082757600080fd5b50565b60008135905061083981610813565b92915050565b610848816107ef565b811461085357600080fd5b50565b6000813590506108658161083f565b92915050565b6000819050919050565b61087e8161086b565b811461088957600080fd5b50565b60008135905061089b81610875565b92915050565b600080fd5b600080fd5b600080fd5b60008083601f8401126108c6576108c56108a1565b5b8235905067ffffffffffffffff8111156108e3576108e26108a6565b5b6020830191508360018202830111156108ff576108fe6108ab565b5b9250929050565b600080600080600080600080600060c08a8c031215610928576109276107c5565b5b60006109368c828d0161082a565b99505060206109478c828d01610856565b98505060406109588c828d0161088c565b97505060608a013567ffffffffffffffff811115610979576109786107ca565b5b6109858c828d016108b0565b965096505060808a013567ffffffffffffffff8111156109a8576109a76107ca565b5b6109b48c828d016108b0565b945094505060a08a013567ffffffffffffffff8111156109d7576109d66107ca565b5b6109e38c828d016108b0565b92509250509295985092959850929598565b600081519050919050565b600082825260208201905092915050565b60005b83811015610a2f578082015181840152602081019050610a14565b60008484015250505050565b6000601f19601f8301169050919050565b6000610a57826109f5565b610a618185610a00565b9350610a71818560208601610a11565b610a7a81610a3b565b840191505092915050565b60006020820190508181036000830152610a9f8184610a4c565b905092915050565b600081600b0b9050919050565b610abd81610aa7565b8114610ac857600080fd5b50565b600081359050610ada81610ab4565b92915050565b60008060408385031215610af757610af66107c5565b5b6000610b0585828601610856565b9250506020610b1685828601610acb565b9150509250929050565b600080600080600080600060a0888a031215610b3f57610b3e6107c5565b5b6000610b4d8a828b0161082a565b9750506020610b5e8a828b01610856565b9650506040610b6f8a828b0161088c565b955050606088013567ffffffffffffffff811115610b9057610b8f6107ca565b5b610b9c8a828b016108b0565b9450945050608088013567ffffffffffffffff811115610bbf57610bbe6107ca565b5b610bcb8a828b016108b0565b925092505092959891949750929550565b600060208284031215610bf257610bf16107c5565b5b6000610c0084828501610856565b91505092915050565b60008115159050919050565b610c1e81610c09565b82525050565b6000602082019050610c396000830184610c15565b92915050565b600082825260208201905092915050565b7f556e737570706f727465642063616c6c6261636b202d2041667465722041677260008201527f65656d656e742055706461746564000000000000000000000000000000000000602082015250565b6000610cac602e83610c3f565b9150610cb782610c50565b604082019050919050565b60006020820190508181036000830152610cdb81610c9f565b9050919050565b7f4e487b7100000000000000000000000000000000000000000000000000000000600052604160045260246000fd5b6000819050919050565b6000610d36610d31610d2c846107cf565b610d11565b6107cf565b9050919050565b6000610d4882610d1b565b9050919050565b6000610d5a82610d3d565b9050919050565b610d6a81610d4f565b82525050565b610d79816107ef565b82525050565b610d8881610aa7565b82525050565b6000608082019050610da36000830187610d61565b610db06020830186610d70565b610dbd6040830185610d7f565b8181036060830152610dcf8184610a4c565b905095945050505050565b6000610de582610d3d565b9050919050565b610df581610dda565b82525050565b7f3078000000000000000000000000000000000000000000000000000000000000600082015250565b6000610e31600283610a00565b9150610e3c82610dfb565b602082019050919050565b6000606082019050610e5c6000830185610dec565b8181036020830152610e6e8184610a4c565b90508181036040830152610e8181610e24565b90509392505050565b600080fd5b610e9882610a3b565b810181811067ffffffffffffffff82111715610eb757610eb6610ce2565b5b80604052505050565b6000610eca6107bb565b9050610ed68282610e8f565b919050565b600067ffffffffffffffff821115610ef657610ef5610ce2565b5b610eff82610a3b565b9050602081019050919050565b6000610f1f610f1a84610edb565b610ec0565b905082815260208101848484011115610f3b57610f3a610e8a565b5b610f46848285610a11565b509392505050565b600082601f830112610f6357610f626108a1565b5b8151610f73848260208601610f0c565b91505092915050565b600060208284031215610f9257610f916107c5565b5b600082015167ffffffffffffffff811115610fb057610faf6107ca565b5b610fbc84828501610f4e565b91505092915050565b7f556e737570706f727465642063616c6c6261636b202d204265666f726520416760008201527f7265656d656e7420437265617465640000000000000000000000000000000000602082015250565b6000611021602f83610c3f565b915061102c82610fc5565b604082019050919050565b6000602082019050818103600083015261105081611014565b9050919050565b600060808201905061106c6000830187610d61565b6110796020830186610d70565b6110866040830185610d70565b81810360608301526110988184610a4c565b905095945050505050565b7f556e737570706f727465642063616c6c6261636b202d2041667465722041677260008201527f65656d656e74205465726d696e61746564000000000000000000000000000000602082015250565b60006110ff603183610c3f565b915061110a826110a3565b604082019050919050565b6000602082019050818103600083015261112e816110f2565b9050919050565b7f556e737570706f727465642063616c6c6261636b202d20204265666f7265204160008201527f677265656d656e74205465726d696e6174656400000000000000000000000000602082015250565b6000611191603383610c3f565b915061119c82611135565b604082019050919050565b600060208201905081810360008301526111c081611184565b9050919050565b60006060820190506111dc6000830186610d61565b6111e96020830185610d70565b6111f66040830184610d70565b949350505050565b6000819050919050565b611211816111fe565b811461121c57600080fd5b50565b60008151905061122e81611208565b92915050565b60008151905061124381610ab4565b92915050565b60008060008060808587031215611263576112626107c5565b5b60006112718782880161121f565b945050602061128287828801611234565b93505060406112938782880161121f565b92505060606112a48782880161121f565b91505092959194509250565b7f556e737570706f727465642063616c6c6261636b202d204265666f726520416760008201527f7265656d656e7420757064617465640000000000000000000000000000000000602082015250565b600061130c602f83610c3f565b9150611317826112b0565b604082019050919050565b6000602082019050818103600083015261133b816112ff565b9050919050565b7f556e737570706f727465642063616c6c6261636b202d2041667465722041677260008201527f65656d656e742043726561746564000000000000000000000000000000000000602082015250565b600061139e602e83610c3f565b91506113a982611342565b604082019050919050565b600060208201905081810360008301526113cd81611391565b905091905056fea26469706673582212204188863a346cd28c2d056ab34d5fcee6993747ad262c39f616468d80ad163efc64736f6c63430008120033",
  "linkReferences": {},
  "deployedLinkReferences": {}
}