{
    "_format": "hh-sol-artifact-1",
    "contractName": "Unyte",
    "sourceName": "contracts/Unyte.sol",
    "abi": [
        {
            "inputs": [
                {
                    "internalType": "address",
                    "name": "target",
                    "type": "address"
                }
            ],
            "name": "getIpfsHashList",
            "outputs": [
                {
                    "internalType": "address[]",
                    "name": "",
                    "type": "address[]"
                },
                {
                    "internalType": "string[]",
                    "name": "",
                    "type": "string[]"
                }
            ],
            "stateMutability": "view",
            "type": "function"
        },
        {
            "inputs": [],
            "name": "ping",
            "outputs": [
                {
                    "internalType": "string",
                    "name": "",
                    "type": "string"
                }
            ],
            "stateMutability": "pure",
            "type": "function"
        },
        {
            "inputs": [
                {
                    "internalType": "address",
                    "name": "target",
                    "type": "address"
                },
                {
                    "internalType": "string",
                    "name": "ipfsHash",
                    "type": "string"
                }
            ],
            "name": "setIpfsHash",
            "outputs": [],
            "stateMutability": "nonpayable",
            "type": "function"
        }
    ],
    "bytecode": "0x608060405234801561001057600080fd5b50610e69806100206000396000f3fe608060405234801561001057600080fd5b50600436106100415760003560e01c80635c36b18614610046578063c475dd8014610064578063fb8e8bee14610080575b600080fd5b61004e6100b1565b60405161005b9190610652565b60405180910390f35b61007e6004803603810190610079919061081b565b6100ee565b005b61009a60048036038101906100959190610877565b61033b565b6040516100a8929190610a6e565b60405180910390f35b60606040518060400160405280600581526020017f68656c6c6f000000000000000000000000000000000000000000000000000000815250905090565b6000818160008573ffffffffffffffffffffffffffffffffffffffff1673ffffffffffffffffffffffffffffffffffffffff16815260200190815260200160002060003373ffffffffffffffffffffffffffffffffffffffff1673ffffffffffffffffffffffffffffffffffffffff16815260200190815260200160002090816101789190610cbb565b5060005b600160008573ffffffffffffffffffffffffffffffffffffffff1673ffffffffffffffffffffffffffffffffffffffff1681526020019081526020016000208054905081101561028e573373ffffffffffffffffffffffffffffffffffffffff16600160008673ffffffffffffffffffffffffffffffffffffffff1673ffffffffffffffffffffffffffffffffffffffff168152602001908152602001600020828154811061022e5761022d610d8d565b5b9060005260206000200160009054906101000a900473ffffffffffffffffffffffffffffffffffffffff1673ffffffffffffffffffffffffffffffffffffffff160361027b575050610337565b808061028690610deb565b91505061017c565b506000600160008573ffffffffffffffffffffffffffffffffffffffff1673ffffffffffffffffffffffffffffffffffffffff168152602001908152602001600020905080339080600181540180825580915050600190039060005260206000200160009091909190916101000a81548173ffffffffffffffffffffffffffffffffffffffff021916908373ffffffffffffffffffffffffffffffffffffffff16021790555050505b5050565b6060806000600160008573ffffffffffffffffffffffffffffffffffffffff1673ffffffffffffffffffffffffffffffffffffffff1681526020019081526020016000208054806020026020016040519081016040528092919081815260200182805480156103ff57602002820191906000526020600020905b8160009054906101000a900473ffffffffffffffffffffffffffffffffffffffff1673ffffffffffffffffffffffffffffffffffffffff16815260200190600101908083116103b5575b505050505090506000815167ffffffffffffffff811115610423576104226106f0565b5b60405190808252806020026020018201604052801561045657816020015b60608152602001906001900390816104415790505b50905060005b82518110156105b4576000808773ffffffffffffffffffffffffffffffffffffffff1673ffffffffffffffffffffffffffffffffffffffff16815260200190815260200160002060008483815181106104b8576104b7610d8d565b5b602002602001015173ffffffffffffffffffffffffffffffffffffffff1673ffffffffffffffffffffffffffffffffffffffff168152602001908152602001600020805461050590610ad4565b80601f016020809104026020016040519081016040528092919081815260200182805461053190610ad4565b801561057e5780601f106105535761010080835404028352916020019161057e565b820191906000526020600020905b81548152906001019060200180831161056157829003601f168201915b505050505082828151811061059657610595610d8d565b5b602002602001018190525080806105ac90610deb565b91505061045c565b508181935093505050915091565b600081519050919050565b600082825260208201905092915050565b60005b838110156105fc5780820151818401526020810190506105e1565b60008484015250505050565b6000601f19601f8301169050919050565b6000610624826105c2565b61062e81856105cd565b935061063e8185602086016105de565b61064781610608565b840191505092915050565b6000602082019050818103600083015261066c8184610619565b905092915050565b6000604051905090565b600080fd5b600080fd5b600073ffffffffffffffffffffffffffffffffffffffff82169050919050565b60006106b382610688565b9050919050565b6106c3816106a8565b81146106ce57600080fd5b50565b6000813590506106e0816106ba565b92915050565b600080fd5b600080fd5b7f4e487b7100000000000000000000000000000000000000000000000000000000600052604160045260246000fd5b61072882610608565b810181811067ffffffffffffffff82111715610747576107466106f0565b5b80604052505050565b600061075a610674565b9050610766828261071f565b919050565b600067ffffffffffffffff821115610786576107856106f0565b5b61078f82610608565b9050602081019050919050565b82818337600083830152505050565b60006107be6107b98461076b565b610750565b9050828152602081018484840111156107da576107d96106eb565b5b6107e584828561079c565b509392505050565b600082601f830112610802576108016106e6565b5b81356108128482602086016107ab565b91505092915050565b600080604083850312156108325761083161067e565b5b6000610840858286016106d1565b925050602083013567ffffffffffffffff81111561086157610860610683565b5b61086d858286016107ed565b9150509250929050565b60006020828403121561088d5761088c61067e565b5b600061089b848285016106d1565b91505092915050565b600081519050919050565b600082825260208201905092915050565b6000819050602082019050919050565b6108d9816106a8565b82525050565b60006108eb83836108d0565b60208301905092915050565b6000602082019050919050565b600061090f826108a4565b61091981856108af565b9350610924836108c0565b8060005b8381101561095557815161093c88826108df565b9750610947836108f7565b925050600181019050610928565b5085935050505092915050565b600081519050919050565b600082825260208201905092915050565b6000819050602082019050919050565b600082825260208201905092915050565b60006109aa826105c2565b6109b4818561098e565b93506109c48185602086016105de565b6109cd81610608565b840191505092915050565b60006109e4838361099f565b905092915050565b6000602082019050919050565b6000610a0482610962565b610a0e818561096d565b935083602082028501610a208561097e565b8060005b85811015610a5c5784840389528151610a3d85826109d8565b9450610a48836109ec565b925060208a01995050600181019050610a24565b50829750879550505050505092915050565b60006040820190508181036000830152610a888185610904565b90508181036020830152610a9c81846109f9565b90509392505050565b7f4e487b7100000000000000000000000000000000000000000000000000000000600052602260045260246000fd5b60006002820490506001821680610aec57607f821691505b602082108103610aff57610afe610aa5565b5b50919050565b60008190508160005260206000209050919050565b60006020601f8301049050919050565b600082821b905092915050565b600060088302610b677fffffffffffffffffffffffffffffffffffffffffffffffffffffffffffffffff82610b2a565b610b718683610b2a565b95508019841693508086168417925050509392505050565b6000819050919050565b6000819050919050565b6000610bb8610bb3610bae84610b89565b610b93565b610b89565b9050919050565b6000819050919050565b610bd283610b9d565b610be6610bde82610bbf565b848454610b37565b825550505050565b600090565b610bfb610bee565b610c06818484610bc9565b505050565b5b81811015610c2a57610c1f600082610bf3565b600181019050610c0c565b5050565b601f821115610c6f57610c4081610b05565b610c4984610b1a565b81016020851015610c58578190505b610c6c610c6485610b1a565b830182610c0b565b50505b505050565b600082821c905092915050565b6000610c9260001984600802610c74565b1980831691505092915050565b6000610cab8383610c81565b9150826002028217905092915050565b610cc4826105c2565b67ffffffffffffffff811115610cdd57610cdc6106f0565b5b610ce78254610ad4565b610cf2828285610c2e565b600060209050601f831160018114610d255760008415610d13578287015190505b610d1d8582610c9f565b865550610d85565b601f198416610d3386610b05565b60005b82811015610d5b57848901518255600182019150602085019450602081019050610d36565b86831015610d785784890151610d74601f891682610c81565b8355505b6001600288020188555050505b505050505050565b7f4e487b7100000000000000000000000000000000000000000000000000000000600052603260045260246000fd5b7f4e487b7100000000000000000000000000000000000000000000000000000000600052601160045260246000fd5b6000610df682610b89565b91507fffffffffffffffffffffffffffffffffffffffffffffffffffffffffffffffff8203610e2857610e27610dbc565b5b60018201905091905056fea2646970667358221220ae71c5b63053f2016ef3adef69fa158d56e176458f753c6ec3a36db6bedd79da64736f6c63430008120033",
    "linkReferences": {},
    "deployedLinkReferences": {}
}