{
  "_format": "hh-sol-artifact-1",
  "contractName": "Unyte",
  "sourceName": "contracts/Unyte.sol",
  "abi": [
    {
      "inputs": [],
      "name": "ping",
      "outputs": [
        {
          "internalType": "string",
          "name": "",
          "type": "string"
        }
      ],
      "stateMutability": "pure",
      "type": "function"
    },
    {
      "inputs": [
        {
          "internalType": "address",
          "name": "target",
          "type": "address"
        },
        {
          "internalType": "bytes32",
          "name": "iphsHash",
          "type": "bytes32"
        },
        {
          "internalType": "bytes32",
          "name": "key",
          "type": "bytes32"
        }
      ],
      "name": "setIpfs",
      "outputs": [],
      "stateMutability": "nonpayable",
      "type": "function"
    }
  ],
  "bytecode": "0x608060405234801561001057600080fd5b5061038c806100206000396000f3fe608060405234801561001057600080fd5b50600436106100365760003560e01c806326ea97101461003b5780635c36b18614610057575b600080fd5b61005560048036038101906100509190610251565b610075565b005b61005f61017b565b60405161006c9190610334565b60405180910390f35b816000808573ffffffffffffffffffffffffffffffffffffffff1673ffffffffffffffffffffffffffffffffffffffff16815260200190815260200160002060003373ffffffffffffffffffffffffffffffffffffffff1673ffffffffffffffffffffffffffffffffffffffff1681526020019081526020016000208190555080600160008573ffffffffffffffffffffffffffffffffffffffff1673ffffffffffffffffffffffffffffffffffffffff16815260200190815260200160002060003373ffffffffffffffffffffffffffffffffffffffff1673ffffffffffffffffffffffffffffffffffffffff16815260200190815260200160002081905550505050565b60606040518060400160405280600581526020017f68656c6c6f000000000000000000000000000000000000000000000000000000815250905090565b600080fd5b600073ffffffffffffffffffffffffffffffffffffffff82169050919050565b60006101e8826101bd565b9050919050565b6101f8816101dd565b811461020357600080fd5b50565b600081359050610215816101ef565b92915050565b6000819050919050565b61022e8161021b565b811461023957600080fd5b50565b60008135905061024b81610225565b92915050565b60008060006060848603121561026a576102696101b8565b5b600061027886828701610206565b93505060206102898682870161023c565b925050604061029a8682870161023c565b9150509250925092565b600081519050919050565b600082825260208201905092915050565b60005b838110156102de5780820151818401526020810190506102c3565b60008484015250505050565b6000601f19601f8301169050919050565b6000610306826102a4565b61031081856102af565b93506103208185602086016102c0565b610329816102ea565b840191505092915050565b6000602082019050818103600083015261034e81846102fb565b90509291505056fea264697066735822122031d829df23350f8108f1e6795003985b75688920525b628fb61c6e672d7628df64736f6c63430008120033",
  "linkReferences": {},
  "deployedLinkReferences": {}
}