{
  "_format": "hh-sol-artifact-1",
  "contractName": "Unyte",
  "sourceName": "contracts/Unyte.sol",
  "abi": [
    {
      "inputs": [
        {
          "internalType": "address",
          "name": "target",
          "type": "address"
        }
      ],
      "name": "getIpfsHashList",
      "outputs": [
        {
          "internalType": "address[]",
          "name": "",
          "type": "address[]"
        },
        {
          "internalType": "bytes32[]",
          "name": "",
          "type": "bytes32[]"
        }
      ],
      "stateMutability": "view",
      "type": "function"
    },
    {
      "inputs": [],
      "name": "ping",
      "outputs": [
        {
          "internalType": "string",
          "name": "",
          "type": "string"
        }
      ],
      "stateMutability": "pure",
      "type": "function"
    },
    {
      "inputs": [
        {
          "internalType": "address",
          "name": "target",
          "type": "address"
        },
        {
          "internalType": "bytes32",
          "name": "ipfsHash",
          "type": "bytes32"
        }
      ],
      "name": "setIpfsHash",
      "outputs": [],
      "stateMutability": "nonpayable",
      "type": "function"
    }
  ],
  "bytecode": "0x608060405234801561001057600080fd5b506109a9806100206000396000f3fe608060405234801561001057600080fd5b50600436106100415760003560e01c80634c4ff837146100465780635c36b18614610062578063fb8e8bee14610080575b600080fd5b610060600480360381019061005b91906105c2565b6100b1565b005b61006a6102f1565b6040516100779190610692565b60405180910390f35b61009a600480360381019061009591906106b4565b61032e565b6040516100a892919061085d565b60405180910390f35b806000808473ffffffffffffffffffffffffffffffffffffffff1673ffffffffffffffffffffffffffffffffffffffff16815260200190815260200160002060003373ffffffffffffffffffffffffffffffffffffffff1673ffffffffffffffffffffffffffffffffffffffff1681526020019081526020016000208190555060005b600160008473ffffffffffffffffffffffffffffffffffffffff1673ffffffffffffffffffffffffffffffffffffffff16815260200190815260200160002080549050811015610245578273ffffffffffffffffffffffffffffffffffffffff16600160008573ffffffffffffffffffffffffffffffffffffffff1673ffffffffffffffffffffffffffffffffffffffff16815260200190815260200160002082815481106101e6576101e5610894565b5b9060005260206000200160009054906101000a900473ffffffffffffffffffffffffffffffffffffffff1673ffffffffffffffffffffffffffffffffffffffff160361023257506102ed565b808061023d906108fc565b915050610134565b506000600160008473ffffffffffffffffffffffffffffffffffffffff1673ffffffffffffffffffffffffffffffffffffffff168152602001908152602001600020905080839080600181540180825580915050600190039060005260206000200160009091909190916101000a81548173ffffffffffffffffffffffffffffffffffffffff021916908373ffffffffffffffffffffffffffffffffffffffff160217905550505b5050565b60606040518060400160405280600581526020017f68656c6c6f000000000000000000000000000000000000000000000000000000815250905090565b6060806000600160008573ffffffffffffffffffffffffffffffffffffffff1673ffffffffffffffffffffffffffffffffffffffff1681526020019081526020016000208054806020026020016040519081016040528092919081815260200182805480156103f257602002820191906000526020600020905b8160009054906101000a900473ffffffffffffffffffffffffffffffffffffffff1673ffffffffffffffffffffffffffffffffffffffff16815260200190600101908083116103a8575b505050505090506000815167ffffffffffffffff81111561041657610415610944565b5b6040519080825280602002602001820160405280156104445781602001602082028036833780820191505090505b50905060005b825181101561051b576000808773ffffffffffffffffffffffffffffffffffffffff1673ffffffffffffffffffffffffffffffffffffffff16815260200190815260200160002060008483815181106104a6576104a5610894565b5b602002602001015173ffffffffffffffffffffffffffffffffffffffff1673ffffffffffffffffffffffffffffffffffffffff168152602001908152602001600020548282815181106104fc576104fb610894565b5b6020026020010181815250508080610513906108fc565b91505061044a565b508181935093505050915091565b600080fd5b600073ffffffffffffffffffffffffffffffffffffffff82169050919050565b60006105598261052e565b9050919050565b6105698161054e565b811461057457600080fd5b50565b60008135905061058681610560565b92915050565b6000819050919050565b61059f8161058c565b81146105aa57600080fd5b50565b6000813590506105bc81610596565b92915050565b600080604083850312156105d9576105d8610529565b5b60006105e785828601610577565b92505060206105f8858286016105ad565b9150509250929050565b600081519050919050565b600082825260208201905092915050565b60005b8381101561063c578082015181840152602081019050610621565b60008484015250505050565b6000601f19601f8301169050919050565b600061066482610602565b61066e818561060d565b935061067e81856020860161061e565b61068781610648565b840191505092915050565b600060208201905081810360008301526106ac8184610659565b905092915050565b6000602082840312156106ca576106c9610529565b5b60006106d884828501610577565b91505092915050565b600081519050919050565b600082825260208201905092915050565b6000819050602082019050919050565b6107168161054e565b82525050565b6000610728838361070d565b60208301905092915050565b6000602082019050919050565b600061074c826106e1565b61075681856106ec565b9350610761836106fd565b8060005b83811015610792578151610779888261071c565b975061078483610734565b925050600181019050610765565b5085935050505092915050565b600081519050919050565b600082825260208201905092915050565b6000819050602082019050919050565b6107d48161058c565b82525050565b60006107e683836107cb565b60208301905092915050565b6000602082019050919050565b600061080a8261079f565b61081481856107aa565b935061081f836107bb565b8060005b8381101561085057815161083788826107da565b9750610842836107f2565b925050600181019050610823565b5085935050505092915050565b600060408201905081810360008301526108778185610741565b9050818103602083015261088b81846107ff565b90509392505050565b7f4e487b7100000000000000000000000000000000000000000000000000000000600052603260045260246000fd5b7f4e487b7100000000000000000000000000000000000000000000000000000000600052601160045260246000fd5b6000819050919050565b6000610907826108f2565b91507fffffffffffffffffffffffffffffffffffffffffffffffffffffffffffffffff8203610939576109386108c3565b5b600182019050919050565b7f4e487b7100000000000000000000000000000000000000000000000000000000600052604160045260246000fdfea2646970667358221220a44522789492d49cb487b4d300bd22332b503fc6ec10e63bc0a30cb83c62931f64736f6c63430008120033",
  "linkReferences": {},
  "deployedLinkReferences": {}
}